:10002600BFDAC1EEA3BA31A1A2BFAAB5C6310D0A85
:10003600000920202032A1A2BFAAB5C6320D0A00AF
:100046000920202033A1A2BFAAB5C6330D0A000994
:1000560020202034A1A2B9D8B5C6310D0A0020202F
:1000660020202035A1A2B9D8B5C6320D0A00092034
:10007600202036A1A2B9D8B5C6330D0A002020200B
:10008600202037A1A2BFAAB5C60D0A002020202035
:100096002038A1A2B9D8B5C60D0A000920202039FA
:1000A600A1A2B9D8C9F9D2F40D0A0020092020204E
:1000B6003130A1A2B7C5D2F4C0D60D0A00A1B0BF97
:1000C600AAB5C631A1B1C3FCC1EECAB6B1F0B3C977
:1000D600B9A60D0A00A1B0BFAAB5C632A1B1C3FC2C
:1000E600C1EECAB6B1F0B3C9B9A60D0A00A1B0BF38
:1000F600AAB5C633A1B1C3FCC1EECAB6B1F0B3C945
:10010600B9A60D0A00A1B0B9D8B5C631A1B1C3FCD4
:10011600C1EECAB6B1F0B3C9B9A60D0A00A1B0B90D
:10012600D8B5C632A1B1C3FCC1EECAB6B1F0B3C9E7
:10013600B9A60D0A00A1B0B9D8B5C633A1B1C3FCA2
:10014600C1EECAB6B1F0B3C9B9A60D0A00A1B0BFD7
:10015600AAB5C6A1B1C3FCC1EECAB6B1F0B3C9B95E
:10016600A60D0A00A1B0B9D8B5C6A1B1C3FCC1EEAF
:10017600CAB6B1F0B3C9B9A60D0A00A1B0B9D8C9BB
:10018600F9D2F4A1B1C3FCC1EECAB6B1F0B3C9B994
:10019600A60D0A00A1B0B7C5D2F4C0D6A1B1C3FC62
:1001A600C1EECAB6B1F0B3C9B9A60D0A00A1B0C472
:1001B600E3BAC3D3C6D3C6A1B1C3FCC1EECAB6B1B6
:1001C600F0B3C9B9A60D0A00C7EBD6D8D0C2CAB6D5
:0B01D600B1F0B7A2BFDAC1EE0D0A00C5
:06098E00011C00011B002A
:10043F00E4F50912094C12000612084112092FE4C3
:10044F00781CF67BFF7A0079261208E67BFF7A008C
:10045F0079371208E67BFF7A0079461208E67BFFB0
:10046F007A0079551208E67BFF7A0079641208E664
:10047F007BFF7A0079741208E67BFF7A007983128A
:10048F0008E67BFF7A0079921208E67BFF7A007903
:10049F00A11208E67BFF7A0079B11208E6781CE614
:1004AF001460FA24F1601824DF60F2243170207890
:1004BF001C76011207F2EF70E4781C763180DE12A1
:1004CF0009AF781EEFF61202D3E4781CF680CEE463
:0504DF00781CF680C846
:10094C00B2C2120976B2C2120976B2C2120976B2DA
:0C095C00C2120976B2C2120976B2C222A1
:100006007580FFE4F59075A0FF75B0FF75C0FFF52C
:0D001600917592FFC2C3D289D2A8D2AF2249
:0A09830000007F057E49DEFEDFFC68
:01098D002247
:08090B008F148E138D128C1164
:10091300E4F515F516F517F518781174FF1207AEFF
:0B092300EC4D4E4F600512098380EE82
:01092E0022A6
:0C0976007F117ED07D1BDDFEDEFCDFFA71
:010982002252
:030003000208826E
:10088200C0E0C0F0C083C082C0D075D000C000C03C
:1008920001C002C003C004C005C006C00712058023
:1008A200D007D006D005D004D003D002D001D000AA
:0B08B200D0D0D082D083D0F0D0E03254
:1002D300EF1207CC03080102FC02031404032005F8
:1002E300036406037207038008032C1603381703FD
:1002F300542A03442F0000038E7BFF7A0079C31234
:1003030008E6D290227BFF7A0079DB1208E6D291CD
:10031300227BFF7A0079F31208E6D292227BFF7ADE
:1003230001790B1208E6C290227BFF7A017923122E
:1003330008E6C291227BFF7A01793B1208E6C2925A
:10034300227BFF7A0179531208E6D290D291D2929E
:10035300227BFF7A01796A1208E6C290C291C292A7
:10036300227BFF7A0179811208E6D294D295227B0F
:10037300FF7A01799A1208E6D295C294227BFF7A1A
:100383000179B31208E6C295C294227BFF7A017900
:05039300CE1208E62275
:1001E1006B61692064656E67207969000000000019
:1001F100000000006B61692064656E672065720014
:1002010000000000000000006B61692064656E67FA
:100211002073616E00000000000000006775616ED0
:100221002064656E6720796900000000000000000D
:100231006775616E2064656E67206572000000005D
:10024100000000006775616E2064656E6720736150
:100251006E000000000000006B61692064656E673C
:100261000000000000000000000000006775616EE2
:100271002064656E670000000000000000000000BF
:100281006775616E207368656E672079696E00001D
:100291000000000066616E672079696E20797565DE
:1002A10000000000000000006E692068616F207985
:1002B1006F7520796F7500000000000000020001D9
:1002C1000004000500160017002F002A0006000791
:0202D100000823
:10084100D2B57F017E007D007C0012090BC2B57F0D
:10085100017E007D007C0012090BD2B57F017E0074
:100861007D007C0012090BC2A17F017E007D007C0E
:100871000012090BD2A17F017E007D007C000209DC
:010881000B6B
:1004E4007F061209A47D357F171209997F0A7E00C1
:1004F4007D007C0012090B7F061209A47D037F890D
:100504001209997F057E007D007C0012090B7D4352
:100514007FCF1209997F057E007D007C0012090BB4
:100524007D027FCB1209997D0A7F11120999E4FD9E
:100534007F1E1209997D3F7F191209997D487F1BFF
:100544001209997D1F7F1D1209997F0A7E007D0083
:100554007C0012090B7D047FCD1209997F057E0072
:100564007D007C0012090BE4FD7FB91209997D4FCF
:0C0574007FCF1209997DFF7F6F0209996B
:100734001204E4E4FD7FBD1209997D487F17120974
:10074400997F0A7E007D007C0012090B7D807F3C2E
:100754001209997D077F3E1209997DFF7F3812099E
:10076400997D077F3A120999E4FD7F401209997D2A
:10077400087F42120999E4FD7F441209997D087F9C
:0F078400461209997F017E007D007C0002090B5F
:10058000E4F508C2A87F2B1209A4781DA607E4FD94
:100590007F29120999E4FD7F02120999781DE6303E
:1005A000E42D7FB21209A4EF642170237FBF1209EA
:1005B000A4BF351B7FBA1209A48F08E508D39400A5
:1005C000400DE508D394045006781C76108004781A
:1005D0001C7611E4FD7F2B120999E4FD7F1C1209A2
:1005E00099E4FD7F29120999E4FD7F02120999E43B
:1005F000FD7F2B120999E4FD7FBA120999E4FD7F72
:10060000BC1209997D017F08120999E4FD7F081247
:040610000999D2A8CA
:0106140022C3
:1007F200E4F50AF50BF50A1209B57F327E007D0099
:100802007C0012090B120398EF700280117F0A7E9E
:10081200007D007C0012090B120615EF7010120801
:10082200417F327E007D007C0012090B8005750B32
:0E083200018009050AE50AC3940540BBAF0B1F
:010840002295
:1008BD00E4F510F50F7FB21209A4BF2105751001E3
:1008CD0080147F0A7E007D007C0012090B050FE568
:0808DD000FC3940A40DFAF10C5
:0108E50022F0
:0309B50002073402
:10061500C2A87D307F351209997D097F1C12099981
:100625007D207FBD1209997D017F081209997F01FF
:100635007E007D007C0012090BE4FD7F08120999FC
:100645007F017E007D007C0012090B1208BDEF7052
:1006550002FF227D0B7F1C1209997DFF7FB21209D3
:10066500997F017E007D007C0012090B7D067F3796
:100675001209997F017E007D007C0012090B7D0621
:100685007F371209997F057E007D007C0012090BDA
:100695007D107F29120999E4FD7FBD120999D2A821
:0306A5007F0122B0
:10039800750D01E4F50C1208BDEF7005F50D0204AA
:1003A8003CE50C25E024BDF582E43402F583E474D1
:1003B8000193FD7FC1120999E4FD7FC31209997D5C
:1003C800047F081209997F017E007D007C001209D4
:1003D8000BE4FD7F081209997F017E007D007C00F7
:1003E80012090BE4F50EE50C75F014A424E1F5826E
:1003F800E43401F583E582250EF582E43583F5833F
:10040800E493FD600E7F05120999050EE50EC3946D
:100418001440D3AD0E7FB91209997DFF7FB212093E
:10042800997D047F37120999050CE50CC3940B508C
:060438000302039EAF0D5C
:01043E00229B
:0609AF007FC51209A4221D
:0B099900908100EFF0908000EDF02254
:0B09A400908100EFF0908000E0FF2247
:04099400021900B88C
:10092F0053877F759850438E40538EFE53890F43E4
:0D093F008920AF1A8F8B8F8DC2ABD28E2214
:030023000209B817
:0109B800320C
:0E096800C2ACC2998F993099FDC299D2AC22CF
:1008E6008B0A8A0B890CAB0AAA0BA90C1207936018
:1008F60013050CE50C7002050B14F9120793FF1291
:05090600096880E222F7
:030000000206A84D
:0C06A800787FE4F6D8FD75811E0206EF95
:10079300BB010689828A83E0225002E722BBFE0264
:0907A300E32289828A83E4932297
:1007AC007401FF3395E0FEFDFC080808E6CF2FF638
:1007BC0018E6CE3EF618E6CD3DF618E6CC3CF62211
:1007CC00D083D082F8E4937012740193700DA3A3BC
:1007DC0093F8740193F5828883E4737402936860D0
:0607EC00EFA3A3A380DFD0
:1006B40002043FE493A3F8E493A34003F68001F219
:1006C40008DFF48029E493A3F85407240CC8C33347
:1006D400C4540F4420C8834004F456800146F6DF16
:1006E400E4800B010204081020408090098EE47E0F
:1006F400019360BCA3FF543F30E509541FFEE4930B
:10070400A360010ECF54C025E060A840B8E493A3D1
:10071400FAE493A3F8E493A3C8C582C8CAC583CAFC
:10072400F0A3C8C582C8CAC583CADFE9DEE780BEB4
:01099800005E
:00000001FF
